{
  "_format": "hh-sol-artifact-1",
  "contractName": "Pledge_Fund",
  "sourceName": "contracts/Pledge_Fund.sol",
  "abi": [
    {
      "inputs": [
        {
          "internalType": "address",
          "name": "_owner",
          "type": "address"
        },
        {
          "internalType": "string",
          "name": "_title",
          "type": "string"
        },
        {
          "internalType": "string",
          "name": "_description",
          "type": "string"
        },
        {
          "internalType": "uint256",
          "name": "_target",
          "type": "uint256"
        },
        {
          "internalType": "uint256",
          "name": "_deadline",
          "type": "uint256"
        }
      ],
      "name": "createCampaign",
      "outputs": [
        {
          "internalType": "uint256",
          "name": "",
          "type": "uint256"
        }
      ],
      "stateMutability": "nonpayable",
      "type": "function"
    },
    {
      "inputs": [
        {
          "internalType": "uint256",
          "name": "_id",
          "type": "uint256"
        }
      ],
      "name": "donateToCampaign",
      "outputs": [],
      "stateMutability": "payable",
      "type": "function"
    },
    {
      "inputs": [],
      "name": "getCampaigns",
      "outputs": [
        {
          "components": [
            {
              "internalType": "address",
              "name": "owner",
              "type": "address"
            },
            {
              "internalType": "string",
              "name": "title",
              "type": "string"
            },
            {
              "internalType": "string",
              "name": "description",
              "type": "string"
            },
            {
              "internalType": "uint256",
              "name": "target",
              "type": "uint256"
            },
            {
              "internalType": "uint256",
              "name": "deadline",
              "type": "uint256"
            },
            {
              "internalType": "uint256",
              "name": "amountCollected",
              "type": "uint256"
            },
            {
              "internalType": "address[]",
              "name": "donators",
              "type": "address[]"
            },
            {
              "internalType": "uint256[]",
              "name": "donations",
              "type": "uint256[]"
            }
          ],
          "internalType": "struct Pledge_Fund.Campaign[]",
          "name": "",
          "type": "tuple[]"
        }
      ],
      "stateMutability": "view",
      "type": "function"
    },
    {
      "inputs": [
        {
          "internalType": "uint256",
          "name": "_id",
          "type": "uint256"
        }
      ],
      "name": "getDonators",
      "outputs": [
        {
          "internalType": "address[]",
          "name": "",
          "type": "address[]"
        },
        {
          "internalType": "uint256[]",
          "name": "",
          "type": "uint256[]"
        }
      ],
      "stateMutability": "view",
      "type": "function"
    },
    {
      "inputs": [],
      "name": "numberOfCampaigns",
      "outputs": [
        {
          "internalType": "uint256",
          "name": "",
          "type": "uint256"
        }
      ],
      "stateMutability": "view",
      "type": "function"
    }
  ],
  "bytecode": "0x6080604052600060015534801561001557600080fd5b5061137e806100256000396000f3fe60806040526004361061004a5760003560e01c8063075843c31461004f57806307ca140d1461008c5780630fa91fa9146100b757806342a4fda8146100f5578063a6b0363314610111575b600080fd5b34801561005b57600080fd5b5061007660048036038101906100719190610b01565b61013c565b6040516100839190610bc3565b60405180910390f35b34801561009857600080fd5b506100a161025b565b6040516100ae9190610bc3565b60405180910390f35b3480156100c357600080fd5b506100de60048036038101906100d99190610bde565b610261565b6040516100ec929190610d87565b60405180910390f35b61010f600480360381019061010a9190610bde565b610371565b005b34801561011d57600080fd5b506101266104d1565b60405161013391906110ab565b60405180910390f35b6000428211610180576040517f08c379a000000000000000000000000000000000000000000000000000000000815260040161017790611150565b60405180910390fd5b600080600060015481526020019081526020016000209050868160000160006101000a81548173ffffffffffffffffffffffffffffffffffffffff021916908373ffffffffffffffffffffffffffffffffffffffff160217905550858160010190805190602001906101f3929190610815565b508481600201908051906020019061020c929190610815565b50838160030181905550828160040181905550600081600501819055506001600081548092919061023c9061119f565b91905055506001805461024f91906111e8565b91505095945050505050565b60015481565b6060806000808481526020019081526020016000206006016000808581526020019081526020016000206007018180548060200260200160405190810160405280929190818152602001828054801561030f57602002820191906000526020600020905b8160009054906101000a900473ffffffffffffffffffffffffffffffffffffffff1673ffffffffffffffffffffffffffffffffffffffff16815260200190600101908083116102c5575b505050505091508080548060200260200160405190810160405280929190818152602001828054801561036157602002820191906000526020600020905b81548152602001906001019080831161034d575b5050505050905091509150915091565b60003490506000806000848152602001908152602001600020905080600601339080600181540180825580915050600190039060005260206000200160009091909190916101000a81548173ffffffffffffffffffffffffffffffffffffffff021916908373ffffffffffffffffffffffffffffffffffffffff1602179055508060070182908060018154018082558091505060019003906000526020600020016000909190919091505560008160000160009054906101000a900473ffffffffffffffffffffffffffffffffffffffff1673ffffffffffffffffffffffffffffffffffffffff16836040516104669061124d565b60006040518083038185875af1925050503d80600081146104a3576040519150601f19603f3d011682016040523d82523d6000602084013e6104a8565b606091505b5050905080156104cb578282600501546104c29190611262565b82600501819055505b50505050565b6060600060015467ffffffffffffffff8111156104f1576104f06109a0565b5b60405190808252806020026020018201604052801561052a57816020015b61051761089b565b81526020019060019003908161050f5790505b50905060005b60015481101561080d576000806000838152602001908152602001600020905080604051806101000160405290816000820160009054906101000a900473ffffffffffffffffffffffffffffffffffffffff1673ffffffffffffffffffffffffffffffffffffffff1673ffffffffffffffffffffffffffffffffffffffff1681526020016001820180546105c3906112e7565b80601f01602080910402602001604051908101604052809291908181526020018280546105ef906112e7565b801561063c5780601f106106115761010080835404028352916020019161063c565b820191906000526020600020905b81548152906001019060200180831161061f57829003601f168201915b50505050508152602001600282018054610655906112e7565b80601f0160208091040260200160405190810160405280929190818152602001828054610681906112e7565b80156106ce5780601f106106a3576101008083540402835291602001916106ce565b820191906000526020600020905b8154815290600101906020018083116106b157829003601f168201915b505050505081526020016003820154815260200160048201548152602001600582015481526020016006820180548060200260200160405190810160405280929190818152602001828054801561077a57602002820191906000526020600020905b8160009054906101000a900473ffffffffffffffffffffffffffffffffffffffff1673ffffffffffffffffffffffffffffffffffffffff1681526020019060010190808311610730575b50505050508152602001600782018054806020026020016040519081016040528092919081815260200182805480156107d257602002820191906000526020600020905b8154815260200190600101908083116107be575b5050505050815250508383815181106107ee576107ed611319565b5b60200260200101819052505080806108059061119f565b915050610530565b508091505090565b828054610821906112e7565b90600052602060002090601f016020900481019282610843576000855561088a565b82601f1061085c57805160ff191683800117855561088a565b8280016001018555821561088a579182015b8281111561088957825182559160200191906001019061086e565b5b50905061089791906108f6565b5090565b604051806101000160405280600073ffffffffffffffffffffffffffffffffffffffff168152602001606081526020016060815260200160008152602001600081526020016000815260200160608152602001606081525090565b5b8082111561090f5760008160009055506001016108f7565b5090565b6000604051905090565b600080fd5b600080fd5b600073ffffffffffffffffffffffffffffffffffffffff82169050919050565b600061095282610927565b9050919050565b61096281610947565b811461096d57600080fd5b50565b60008135905061097f81610959565b92915050565b600080fd5b600080fd5b6000601f19601f8301169050919050565b7f4e487b7100000000000000000000000000000000000000000000000000000000600052604160045260246000fd5b6109d88261098f565b810181811067ffffffffffffffff821117156109f7576109f66109a0565b5b80604052505050565b6000610a0a610913565b9050610a1682826109cf565b919050565b600067ffffffffffffffff821115610a3657610a356109a0565b5b610a3f8261098f565b9050602081019050919050565b82818337600083830152505050565b6000610a6e610a6984610a1b565b610a00565b905082815260208101848484011115610a8a57610a8961098a565b5b610a95848285610a4c565b509392505050565b600082601f830112610ab257610ab1610985565b5b8135610ac2848260208601610a5b565b91505092915050565b6000819050919050565b610ade81610acb565b8114610ae957600080fd5b50565b600081359050610afb81610ad5565b92915050565b600080600080600060a08688031215610b1d57610b1c61091d565b5b6000610b2b88828901610970565b955050602086013567ffffffffffffffff811115610b4c57610b4b610922565b5b610b5888828901610a9d565b945050604086013567ffffffffffffffff811115610b7957610b78610922565b5b610b8588828901610a9d565b9350506060610b9688828901610aec565b9250506080610ba788828901610aec565b9150509295509295909350565b610bbd81610acb565b82525050565b6000602082019050610bd86000830184610bb4565b92915050565b600060208284031215610bf457610bf361091d565b5b6000610c0284828501610aec565b91505092915050565b600081519050919050565b600082825260208201905092915050565b6000819050602082019050919050565b610c4081610947565b82525050565b6000610c528383610c37565b60208301905092915050565b6000602082019050919050565b6000610c7682610c0b565b610c808185610c16565b9350610c8b83610c27565b8060005b83811015610cbc578151610ca38882610c46565b9750610cae83610c5e565b925050600181019050610c8f565b5085935050505092915050565b600081519050919050565b600082825260208201905092915050565b6000819050602082019050919050565b610cfe81610acb565b82525050565b6000610d108383610cf5565b60208301905092915050565b6000602082019050919050565b6000610d3482610cc9565b610d3e8185610cd4565b9350610d4983610ce5565b8060005b83811015610d7a578151610d618882610d04565b9750610d6c83610d1c565b925050600181019050610d4d565b5085935050505092915050565b60006040820190508181036000830152610da18185610c6b565b90508181036020830152610db58184610d29565b90509392505050565b600081519050919050565b600082825260208201905092915050565b6000819050602082019050919050565b600081519050919050565b600082825260208201905092915050565b60005b83811015610e24578082015181840152602081019050610e09565b83811115610e33576000848401525b50505050565b6000610e4482610dea565b610e4e8185610df5565b9350610e5e818560208601610e06565b610e678161098f565b840191505092915050565b600082825260208201905092915050565b6000610e8e82610c0b565b610e988185610e72565b9350610ea383610c27565b8060005b83811015610ed4578151610ebb8882610c46565b9750610ec683610c5e565b925050600181019050610ea7565b5085935050505092915050565b600082825260208201905092915050565b6000610efd82610cc9565b610f078185610ee1565b9350610f1283610ce5565b8060005b83811015610f43578151610f2a8882610d04565b9750610f3583610d1c565b925050600181019050610f16565b5085935050505092915050565b600061010083016000830151610f696000860182610c37565b5060208301518482036020860152610f818282610e39565b91505060408301518482036040860152610f9b8282610e39565b9150506060830151610fb06060860182610cf5565b506080830151610fc36080860182610cf5565b5060a0830151610fd660a0860182610cf5565b5060c083015184820360c0860152610fee8282610e83565b91505060e083015184820360e08601526110088282610ef2565b9150508091505092915050565b60006110218383610f50565b905092915050565b6000602082019050919050565b600061104182610dbe565b61104b8185610dc9565b93508360208202850161105d85610dda565b8060005b85811015611099578484038952815161107a8582611015565b945061108583611029565b925060208a01995050600181019050611061565b50829750879550505050505092915050565b600060208201905081810360008301526110c58184611036565b905092915050565b600082825260208201905092915050565b7f54686520646561646c696e652073686f756c642062652061206461746520696e60008201527f20746865206675747572652e0000000000000000000000000000000000000000602082015250565b600061113a602c836110cd565b9150611145826110de565b604082019050919050565b600060208201905081810360008301526111698161112d565b9050919050565b7f4e487b7100000000000000000000000000000000000000000000000000000000600052601160045260246000fd5b60006111aa82610acb565b91507fffffffffffffffffffffffffffffffffffffffffffffffffffffffffffffffff8214156111dd576111dc611170565b5b600182019050919050565b60006111f382610acb565b91506111fe83610acb565b92508282101561121157611210611170565b5b828203905092915050565b600081905092915050565b50565b600061123760008361121c565b915061124282611227565b600082019050919050565b60006112588261122a565b9150819050919050565b600061126d82610acb565b915061127883610acb565b9250827fffffffffffffffffffffffffffffffffffffffffffffffffffffffffffffffff038211156112ad576112ac611170565b5b828201905092915050565b7f4e487b7100000000000000000000000000000000000000000000000000000000600052602260045260246000fd5b600060028204905060018216806112ff57607f821691505b60208210811415611313576113126112b8565b5b50919050565b7f4e487b7100000000000000000000000000000000000000000000000000000000600052603260045260246000fdfea2646970667358221220b321c1b41454b5b45765db900565a8bc4dcf5050a30ca2c4507b47b72435d62164736f6c63430008090033",
  "linkReferences": {},
  "deployedLinkReferences": {}
}